{
  "contractName": "HaiLe",
  "abi": [
    {
      "inputs": [],
      "stateMutability": "nonpayable",
      "type": "constructor"
    },
    {
      "anonymous": false,
      "inputs": [
        {
          "indexed": true,
          "internalType": "address",
          "name": "owner",
          "type": "address"
        },
        {
          "indexed": true,
          "internalType": "address",
          "name": "spender",
          "type": "address"
        },
        {
          "indexed": false,
          "internalType": "uint256",
          "name": "value",
          "type": "uint256"
        }
      ],
      "name": "Approval",
      "type": "event"
    },
    {
      "anonymous": false,
      "inputs": [
        {
          "indexed": true,
          "internalType": "address",
          "name": "from",
          "type": "address"
        },
        {
          "indexed": true,
          "internalType": "address",
          "name": "to",
          "type": "address"
        },
        {
          "indexed": false,
          "internalType": "uint256",
          "name": "value",
          "type": "uint256"
        }
      ],
      "name": "Transfer",
      "type": "event"
    },
    {
      "inputs": [
        {
          "internalType": "address",
          "name": "",
          "type": "address"
        },
        {
          "internalType": "address",
          "name": "",
          "type": "address"
        }
      ],
      "name": "allowance",
      "outputs": [
        {
          "internalType": "uint256",
          "name": "",
          "type": "uint256"
        }
      ],
      "stateMutability": "view",
      "type": "function"
    },
    {
      "inputs": [
        {
          "internalType": "address",
          "name": "",
          "type": "address"
        }
      ],
      "name": "balances",
      "outputs": [
        {
          "internalType": "uint256",
          "name": "",
          "type": "uint256"
        }
      ],
      "stateMutability": "view",
      "type": "function"
    },
    {
      "inputs": [],
      "name": "decimals",
      "outputs": [
        {
          "internalType": "uint256",
          "name": "",
          "type": "uint256"
        }
      ],
      "stateMutability": "view",
      "type": "function"
    },
    {
      "inputs": [],
      "name": "name",
      "outputs": [
        {
          "internalType": "string",
          "name": "",
          "type": "string"
        }
      ],
      "stateMutability": "view",
      "type": "function"
    },
    {
      "inputs": [],
      "name": "symbol",
      "outputs": [
        {
          "internalType": "string",
          "name": "",
          "type": "string"
        }
      ],
      "stateMutability": "view",
      "type": "function"
    },
    {
      "inputs": [],
      "name": "totalSupply",
      "outputs": [
        {
          "internalType": "uint256",
          "name": "",
          "type": "uint256"
        }
      ],
      "stateMutability": "view",
      "type": "function"
    },
    {
      "inputs": [
        {
          "internalType": "address",
          "name": "owner",
          "type": "address"
        }
      ],
      "name": "balanceOf",
      "outputs": [
        {
          "internalType": "uint256",
          "name": "",
          "type": "uint256"
        }
      ],
      "stateMutability": "view",
      "type": "function"
    },
    {
      "inputs": [
        {
          "internalType": "address",
          "name": "to",
          "type": "address"
        },
        {
          "internalType": "uint256",
          "name": "value",
          "type": "uint256"
        }
      ],
      "name": "transfer",
      "outputs": [
        {
          "internalType": "bool",
          "name": "",
          "type": "bool"
        }
      ],
      "stateMutability": "nonpayable",
      "type": "function"
    },
    {
      "inputs": [
        {
          "internalType": "address",
          "name": "from",
          "type": "address"
        },
        {
          "internalType": "address",
          "name": "to",
          "type": "address"
        },
        {
          "internalType": "uint256",
          "name": "value",
          "type": "uint256"
        }
      ],
      "name": "transferFrom",
      "outputs": [
        {
          "internalType": "bool",
          "name": "",
          "type": "bool"
        }
      ],
      "stateMutability": "nonpayable",
      "type": "function"
    },
    {
      "inputs": [
        {
          "internalType": "address",
          "name": "spender",
          "type": "address"
        },
        {
          "internalType": "uint256",
          "name": "value",
          "type": "uint256"
        }
      ],
      "name": "approve",
      "outputs": [
        {
          "internalType": "bool",
          "name": "",
          "type": "bool"
        }
      ],
      "stateMutability": "nonpayable",
      "type": "function"
    }
  ],
  "bytecode": "0x608060405266038d7ea4c680006002556040518060400160405280600981526020017f4861694c65436f696e0000000000000000000000000000000000000000000000815250600390805190602001906200005c92919062000109565b506040518060400160405280600381526020017f484c45000000000000000000000000000000000000000000000000000000000081525060049080519060200190620000aa92919062000109565b506009600555348015620000bd57600080fd5b506002546000803373ffffffffffffffffffffffffffffffffffffffff1673ffffffffffffffffffffffffffffffffffffffff168152602001908152602001600020819055506200021e565b8280546200011790620001b9565b90600052602060002090601f0160209004810192826200013b576000855562000187565b82601f106200015657805160ff191683800117855562000187565b8280016001018555821562000187579182015b828111156200018657825182559160200191906001019062000169565b5b5090506200019691906200019a565b5090565b5b80821115620001b55760008160009055506001016200019b565b5090565b60006002820490506001821680620001d257607f821691505b60208210811415620001e957620001e8620001ef565b5b50919050565b7f4e487b7100000000000000000000000000000000000000000000000000000000600052602260045260246000fd5b610cc1806200022e6000396000f3fe608060405234801561001057600080fd5b506004361061009e5760003560e01c8063313ce56711610066578063313ce5671461016f57806370a082311461018d57806395d89b41146101bd578063a9059cbb146101db578063dd62ed3e1461020b5761009e565b806306fdde03146100a3578063095ea7b3146100c157806318160ddd146100f157806323b872dd1461010f57806327e235e31461013f575b600080fd5b6100ab61023b565b6040516100b89190610a15565b60405180910390f35b6100db60048036038101906100d69190610944565b6102c9565b6040516100e891906109fa565b60405180910390f35b6100f96103bb565b6040516101069190610a57565b60405180910390f35b610129600480360381019061012491906108f5565b6103c1565b60405161013691906109fa565b60405180910390f35b61015960048036038101906101549190610890565b6105e7565b6040516101669190610a57565b60405180910390f35b6101776105ff565b6040516101849190610a57565b60405180910390f35b6101a760048036038101906101a29190610890565b610605565b6040516101b49190610a57565b60405180910390f35b6101c561064d565b6040516101d29190610a15565b60405180910390f35b6101f560048036038101906101f09190610944565b6106db565b60405161020291906109fa565b60405180910390f35b610225600480360381019061022091906108b9565b610841565b6040516102329190610a57565b60405180910390f35b6003805461024890610b93565b80601f016020809104026020016040519081016040528092919081815260200182805461027490610b93565b80156102c15780601f10610296576101008083540402835291602001916102c1565b820191906000526020600020905b8154815290600101906020018083116102a457829003601f168201915b505050505081565b600081600160003373ffffffffffffffffffffffffffffffffffffffff1673ffffffffffffffffffffffffffffffffffffffff16815260200190815260200160002060008573ffffffffffffffffffffffffffffffffffffffff1673ffffffffffffffffffffffffffffffffffffffff168152602001908152602001600020819055508273ffffffffffffffffffffffffffffffffffffffff163373ffffffffffffffffffffffffffffffffffffffff167f8c5be1e5ebec7d5bd14f71427d1e84f3dd0314c0f7b2291e5b200ac8c7c3b925846040516103a99190610a57565b60405180910390a36001905092915050565b60025481565b6000816103cd85610605565b101561040e576040517f08c379a000000000000000000000000000000000000000000000000000000000815260040161040590610a37565b60405180910390fd5b81600160008673ffffffffffffffffffffffffffffffffffffffff1673ffffffffffffffffffffffffffffffffffffffff16815260200190815260200160002060003373ffffffffffffffffffffffffffffffffffffffff1673ffffffffffffffffffffffffffffffffffffffff1681526020019081526020016000205410156104cd576040517f08c379a00000000000000000000000000000000000000000000000000000000081526004016104c490610a37565b60405180910390fd5b816000808573ffffffffffffffffffffffffffffffffffffffff1673ffffffffffffffffffffffffffffffffffffffff168152602001908152602001600020600082825461051b9190610a8e565b92505081905550816000808673ffffffffffffffffffffffffffffffffffffffff1673ffffffffffffffffffffffffffffffffffffffff16815260200190815260200160002060008282546105709190610ae4565b925050819055508273ffffffffffffffffffffffffffffffffffffffff168473ffffffffffffffffffffffffffffffffffffffff167fddf252ad1be2c89b69c2b068fc378daa952ba7f163c4a11628f55a4df523b3ef846040516105d49190610a57565b60405180910390a3600190509392505050565b60006020528060005260406000206000915090505481565b60055481565b60008060008373ffffffffffffffffffffffffffffffffffffffff1673ffffffffffffffffffffffffffffffffffffffff168152602001908152602001600020549050919050565b6004805461065a90610b93565b80601f016020809104026020016040519081016040528092919081815260200182805461068690610b93565b80156106d35780601f106106a8576101008083540402835291602001916106d3565b820191906000526020600020905b8154815290600101906020018083116106b657829003601f168201915b505050505081565b6000816106e733610605565b1015610728576040517f08c379a000000000000000000000000000000000000000000000000000000000815260040161071f90610a37565b60405180910390fd5b816000808573ffffffffffffffffffffffffffffffffffffffff1673ffffffffffffffffffffffffffffffffffffffff16815260200190815260200160002060008282546107769190610a8e565b92505081905550816000803373ffffffffffffffffffffffffffffffffffffffff1673ffffffffffffffffffffffffffffffffffffffff16815260200190815260200160002060008282546107cb9190610ae4565b925050819055508273ffffffffffffffffffffffffffffffffffffffff163373ffffffffffffffffffffffffffffffffffffffff167fddf252ad1be2c89b69c2b068fc378daa952ba7f163c4a11628f55a4df523b3ef8460405161082f9190610a57565b60405180910390a36001905092915050565b6001602052816000526040600020602052806000526040600020600091509150505481565b60008135905061087581610c5d565b92915050565b60008135905061088a81610c74565b92915050565b6000602082840312156108a257600080fd5b60006108b084828501610866565b91505092915050565b600080604083850312156108cc57600080fd5b60006108da85828601610866565b92505060206108eb85828601610866565b9150509250929050565b60008060006060848603121561090a57600080fd5b600061091886828701610866565b935050602061092986828701610866565b925050604061093a8682870161087b565b9150509250925092565b6000806040838503121561095757600080fd5b600061096585828601610866565b92505060206109768582860161087b565b9150509250929050565b61098981610b2a565b82525050565b600061099a82610a72565b6109a48185610a7d565b93506109b4818560208601610b60565b6109bd81610c23565b840191505092915050565b60006109d5601283610a7d565b91506109e082610c34565b602082019050919050565b6109f481610b56565b82525050565b6000602082019050610a0f6000830184610980565b92915050565b60006020820190508181036000830152610a2f818461098f565b905092915050565b60006020820190508181036000830152610a50816109c8565b9050919050565b6000602082019050610a6c60008301846109eb565b92915050565b600081519050919050565b600082825260208201905092915050565b6000610a9982610b56565b9150610aa483610b56565b9250827fffffffffffffffffffffffffffffffffffffffffffffffffffffffffffffffff03821115610ad957610ad8610bc5565b5b828201905092915050565b6000610aef82610b56565b9150610afa83610b56565b925082821015610b0d57610b0c610bc5565b5b828203905092915050565b6000610b2382610b36565b9050919050565b60008115159050919050565b600073ffffffffffffffffffffffffffffffffffffffff82169050919050565b6000819050919050565b60005b83811015610b7e578082015181840152602081019050610b63565b83811115610b8d576000848401525b50505050565b60006002820490506001821680610bab57607f821691505b60208210811415610bbf57610bbe610bf4565b5b50919050565b7f4e487b7100000000000000000000000000000000000000000000000000000000600052601160045260246000fd5b7f4e487b7100000000000000000000000000000000000000000000000000000000600052602260045260246000fd5b6000601f19601f8301169050919050565b7f496e73756666696369656e742066756e64730000000000000000000000000000600082015250565b610c6681610b18565b8114610c7157600080fd5b50565b610c7d81610b56565b8114610c8857600080fd5b5056fea264697066735822122099302898f2285f27cb4ece0d7f04fcc2888d45a64c6565acbb7b45176db7278f64736f6c63430008020033",
  "immutableReferences": {},
  "source": "pragma solidity ^0.8.2;\n\ncontract HaiLe {\n    mapping(address => uint256) public balances;\n\n    mapping(address => mapping(address => uint256)) public allowance;\n\n    uint256 public totalSupply = 1000 * 10**12;\n    string public name = \"HaiLeCoin\";\n    string public symbol = \"HLE\";\n    uint256 public decimals = 9;\n\n    event Transfer(address indexed from, address indexed to, uint256 value);\n    event Approval(\n        address indexed owner,\n        address indexed spender,\n        uint256 value\n    );\n\n    // run when the contract is deployed\n    constructor() {\n        balances[msg.sender] = totalSupply;\n    }\n\n    function balanceOf(address owner) public view returns (uint256) {\n        return balances[owner];\n    }\n\n    function transfer(address to, uint256 value) public returns (bool) {\n        require(balanceOf(msg.sender) >= value, \"Insufficient funds\");\n        balances[to] += value;\n        balances[msg.sender] -= value;\n        emit Transfer(msg.sender, to, value);\n        return true;\n    }\n\n    function transferFrom(\n        address from,\n        address to,\n        uint256 value\n    ) public returns (bool) {\n        require(balanceOf(from) >= value, \"Insufficient funds\");\n        require(allowance[from][msg.sender] >= value, \"Insufficient funds\");\n        balances[to] += value;\n        balances[from] -= value;\n        emit Transfer(from, to, value);\n        return true;\n    }\n\n    function approve(address spender, uint256 value) public returns (bool) {\n        allowance[msg.sender][spender] = value;\n        emit Approval(msg.sender, spender, value);\n        return true;\n    }\n}\n",
  "sourcePath": "/Users/athea/Projects/truffle/contracts/HaiLeCoin.sol",
  "compiler": {
    "name": "solc",
    "version": "0.8.2+commit.661d1103.Emscripten.clang"
  },
  "schemaVersion": "3.4.4",
  "updatedAt": "2022-02-06T10:53:48.659Z",
  "devdoc": {
    "kind": "dev",
    "methods": {},
    "version": 1
  },
  "userdoc": {
    "kind": "user",
    "methods": {},
    "version": 1
  }
}